:020000040800F2
:100000000007002091010008AB11000897100008BC
:10001000A91100089F040008351400080000000022
:10002000000000000000000000000000EB110008CC
:10003000A104000800000000E9110008ED1100080B
:10004000AB010008AB010008AB010008AB010008E0
:10005000AB010008AB010008AB010008AB010008D0
:10006000AB010008AB010008AB010008AB010008C0
:10007000AB010008AB010008AB010008AB010008B0
:10008000AB010008AB010008AB010008AB010008A0
:10009000AB010008AB010008AB010008AB01000890
:1000A000AB010008AB010008AB010008AB01000880
:1000B000AB010008AB010008AB010008AB01000870
:1000C000AB010008AB010008AB010008AB01000860
:1000D000AB010008AB010008AB010008AB01000850
:1000E000AB010008AB010008AB01000800F002F80A
:1000F00000F03FF80AA090E8000C82448344AAF183
:100100000107DA4501D100F034F8AFF2090EBAE880
:100110000F0013F0010F18BFFB1A43F0010318473B
:10012000A4140000C4140000103A24BF78C878C199
:10013000FAD8520724BF30C830C144BF04680C60ED
:10014000704700000023002400250026103A28BF35
:1001500078C1FBD8520728BF30C148BF0B60704739
:10016000752900F07580002070471FB51FBD10B5C0
:1001700010BD00F05BF91146FFF7F7FF01F078F9C9
:1001800000F079F903B4FFF7F2FF03BC00F080F947
:100190000948804709480047FEE7FEE7FEE7FEE71B
:1001A000FEE7FEE7FEE7FEE7FEE7FEE70448054957
:1001B000054A064B704700003D120008ED0000089C
:1001C00000010020000700200003002000030020A1
:1001D0000FB4044910B503AA029800F0F9F810BC56
:1001E0005DF814FB000000202DE9F0410E460446A6
:1001F000002020622046E168884730B3252805D0DA
:10020000D4E901219047206A401CF2E7E1682046CA
:1002100000278847050018D0A5F14100192802D809
:1002200020354FF400673246294620462760FFF705
:1002300097FF40B1012804D0F61D26F007060836C6
:10024000D8E7361DD6E72846DAE7206ABDE8F08110
:100250002DE9F0410646002410687529314616A59F
:1002600010D0AFF30080002802DA404213A507E067
:1002700031688A0701D512A502E0490704D511A506
:10028000012401E0AFF3008000210A2206F12407D7
:1002900009E0B0FBF2FCB0FBF2F302FB1C003030D3
:1002A00078541846491C0028F3D123462A46304684
:1002B000BDE8F04100F032B8000000002D00000061
:1002C0002B000000200000004FF0000200B5134694
:1002D00094469646203922BFA0E80C50A0E80C5066
:1002E000B1F12001BFF4F7AF090728BFA0E80C5017
:1002F00048BF0CC05DF804EB890028BF40F8042B10
:1003000008BF704748BF20F8022B11F0804F18BF7C
:1003100000F8012B70477047704770472DE9F04790
:100320000D4699469246044600F124080168880665
:1003300004D5E06921F01001216000E00120A8420D
:1003400001DD471B00E00027A1697A1902EB0900D3
:10035000081AA0612078C00602D42046AFF30080BE
:10036000002608E0D4E901211AF806009047206A27
:10037000401C761C20624E45F4DB2078C0060AD56E
:100380002046AFF3008006E0D4E9012130209047F9
:10039000206A401C2062381EA7F10107F4DC07E048
:1003A000D4E9012118F805009047206A401C20621A
:1003B000281EA5F10105F3DC2046AFF3008020786C
:1003C000000602D50220BDE8F0870120FBE700000F
:1003D000074B70B50D467B4400F011F804462846E3
:1003E00000F020F810B14FF0FF3070BD204670BD16
:1003F0007F10000001694A1C02610878704700B54F
:100400008FB0CDE901310021059105497944CDE94D
:10041000031011466846FFF7E7FE0FB000BD00006D
:10042000E5FFFFFF007B00F080007047754600F09D
:100430002BF8AE4605006946534620F00700854676
:1004400018B020B5FFF7B2FEBDE820404FF000061F
:100450004FF000074FF000084FF0000B21F00701AC
:10046000AC46ACE8C009ACE8C009ACE8C009ACE8EF
:10047000C0098D46704710B50446AFF30080204692
:10048000BDE81040FFF77EBE00487047A000002086
:1004900001491820ABBEFEE7260002007047FEE7C8
:1004A0007047000070B5044600F008F90546601C6E
:1004B00002D004480078044400F000F9401BA04238
:1004C000FAD370BD040000202DE9F84FDFF8B89191
:1004D000002409F1040A0AF1040B23460F270BF14B
:1004E000040EC9E00125A5402A40AA427DD1674EED
:1004F000D1F804C0ACEB0608B44532D014DCBCF132
:10050000030F3AD009DCBCF1000F2AD0BCF1010F77
:100510001CD0BCF1020F31D11DE0BCF1110F17D07E
:10052000BCF1120F2AD119E0B8F5881F19D006DCEA
:10053000B8F5803F15D0B8F5801F1FD111E0B8F590
:10054000001F0ED0B8F5041F18D10AE0CB6815E0E3
:10055000CB681B1D12E0CB6808330FE0CB680C336F
:100560000CE08B682BB1012B4FF0080303D04561E1
:1005700004E0042302E0056100E00023FF2A01D823
:10058000064601E000F104064FEA840501D9A5F111
:100590002005D6F8008007FA05FC28EA0C0803FAC3
:1005A00005F548EA0508C6F800804D68ED0062D5FB
:1005B000374DAE6946F00106AE61AD6924F0030621
:1005C00005F001050095334D06EB050CDCF80850ED
:1005D000A607360F07FA06F825EA0805DFF8B880FF
:1005E000404503D14FF0000817E044E0DFF8AC804D
:1005F000404502D14FF001080FE0DFF8A4804045EC
:1006000002D14FF0020808E0DFF89880404502D19F
:100610004FF0030801E04FF0040808FA06F848EA32
:100620000508CCF808804D68D9F80060ED034D4608
:1006300001D5164300E096432E604D68DAF800605D
:10064000AD03554601D5164300E096432E604D6834
:10065000DBF80060ED025D4601D5164300E09643ED
:100660002E604D68DEF80060AD02754601D5164378
:1006700000E096432E60641C0D682A46E5407FF436
:1006800031AFBDE8F88F00000004014000001110F8
:10069000001002400000014000080140000C014031
:1006A00000100140001401408068084000D0012083
:1006B00070470AB1016170470904FBE7014880688F
:1006C000704700000400002002488168027811444D
:1006D0008160704704000020074810B5016841F0B0
:1006E00010010160032000F067F80F2000F006F809
:1006F00000F024F8002010BD0020024070B50D4D20
:1007000004464FF47A712878B1FBF0F00A49096881
:10071000B1FBF0F000F0E0FA48B9102C07D200224B
:100720002146501E00F028F800206C6070BD0120AA
:1007300070BD000004000020100000200C4808B527
:10074000816941F001018161816901F0010100913C
:10075000C16941F08051C161C06900F080500090D2
:100760000448416821F0E06141F00071416008BD3A
:100770000010024000000140F0B40E4B1B680C4614
:10078000C3F30223C3F10705042D00D90425191D65
:10079000072901D2002300E0DB1E012606FA05F13D
:1007A000491E214099409E40761E16403143F0BCC0
:1007B00000F041BE0CED00E0064900F007020868B9
:1007C0004FF6FF03184040EA0220034A1043086036
:1007D000704700000CED00E00000FA052DE9F0473D
:1007E0000F46050061D0434E306800F00700B84264
:1007F00009D2306820F0070038433060306800F0DC
:100800000700B84251D128683B4C810712D54007F8
:1008100003D5606840F4E06060602878000703D585
:10082000606840F4605060606068A96820F0F00083
:10083000084360602878C00728D06868012810D075
:100840002168022810D0890700292EDA616821F07A
:10085000030101436160FFF731FF804641F28839AF
:100860000DE021688903EFE78901EDE7FFF726FF37
:10087000A0EB0801494502D90320BDE8F087606874
:10088000696800F00C00B0EB810FEFD1306800F028
:100890000700B8420BD9306820F0070038433060B9
:1008A000306800F00700B84201D00120E5E7287861
:1008B000400705D56068E96820F4E060084360609F
:1008C0002878000706D56068296920F4605040EA5E
:1008D000C100606000F038F86168084AC1F3031194
:1008E000515CC8400649086006480068FFF706FFEB
:1008F0000020C2E70020024000100240AC150008B2
:1009000010000020080000200448054900684968DC
:10091000044AC1F30221515CC84070471000002016
:1009200000100240BC1500080448054900684968E9
:10093000044AC1F3C221515CC84070471000002036
:1009400000100240BC15000813A185B00FC98DE846
:100950000F0015A0154A00680490516801F00C00C2
:10096000042804D0082804D0114805B07047114865
:10097000FBE7C1F38343C9031DF8030009D55168A0
:1009800004AAC1F34041515C0A4A5043B0FBF1F064
:10099000EBE708494843E8E70203040506070809AE
:1009A0000A0B0C0D0E0F1010010200000010024087
:1009B00000127A0000093D002DE9F84F040070D0C4
:1009C0002078C04DC00749D06868C0F38100012875
:1009D00007D06868C0F38100022809D16868C003A5
:1009E00006D52868800339D560680028E7D035E04F
:1009F0006068B0F5803F0BD010B1B0F5A02F11D0DA
:100A0000286820F480302860286820F4802002E0E4
:100A1000286840F480302860606890B1FFF74EFE8F
:100A200006460AE0286840F480202860F0E700BF0E
:100A3000FFF744FE801B642873D828688003F7D52D
:100A40000CE0FFF73BFE064605E000BFFFF736FE71
:100A5000801B6428F0D828688003F7D420789A4E49
:100A600080074FF001094FF0000839D5686810F091
:100A70000C0F07D06868C0F38100022809D16868AC
:100A8000C00306D42868800714D52069012808D13E
:100A900010E02069B0B1C6F80090FFF70FFE0746DE
:100AA00005E00AE1FFF70AFEC01B0228C4D8286847
:100AB0008007F7D52868616920F0F80040EAC10096
:100AC00028600DE0C6F80080FFF7F8FD074604E057
:100AD000FFF7F4FDC01B022823D828688007F7D44D
:100AE000207800072CD57948A169D9B1C0F80090C9
:100AF000FFF7E4FD074604E0FFF7E0FDC01B022816
:100B00000FD8686A8007F7D571484FF4FA5100682A
:100B1000B0FBF1F0009000BF0098411E0091FAD2A6
:100B20000EE080E0C0F80080FFF7C8FD074604E053
:100B3000FFF7C4FDC01B022875D8686A8007F7D488
:100B40002078400760D5E8690027C00008D4E8692C
:100B500040F08050E861E869012700F08050009083
:100B60005C480168C90513D40168834641F480716B
:100B70000160FFF7A3FD824606E000BFFFF79EFD80
:100B8000A0EB0A0064284ED8DBF80000C005F5D5BC
:100B9000E06801280AD008B1052813D0286A20F09F
:100BA00001002862286A20F0040002E0286A40F070
:100BB00001002862E06841F2883B98B1FFF77EFDB2
:100BC00082460BE0286A40F004002862EEE700BF8E
:100BD000FFF774FDA0EB0A0159455AD8286A80072F
:100BE000F6D50CE0FFF76AFD824605E0FFF766FDEB
:100BF000A0EB0A0159454CD8286A8007F6D41FB1EA
:100C0000E86920F08050E861E06988B36968C1F361
:100C10008101022944D00228C6F8608004D0FFF781
:100C20004DFD044638E034E0FFF748FD074604E098
:100C3000FFF744FDC01B02282BD828688001F7D499
:100C4000206AB0F5803F05D16868A16820F40030C3
:100C500008436860D4E908010843696821F4741105
:100C600008436860C6F86090FFF728FD044606E078
:100C700025E000BFFFF722FD001B022809D82868E5
:100C80008001F7D51BE000BFFFF718FD001B02280D
:100C900002D90320BDE8F88F28688001F4D40EE063
:100CA0000128F7D06868226A00F48031914204D1AB
:100CB000616A00F47010884201D00120EAE7002048
:100CC000E8E7000000100240000042428004424277
:100CD000100000200070004010B5401EB0F1807F71
:100CE00001D3012010BD4FF0E02460610F21601797
:100CF00000F0A1FB0020A06107202061002010BDB2
:100D000070B590F83C20012A26D0012480F83C40A0
:100D1000022280F83D2003685A689D6822F0700620
:100D20000A6832435A600D4B02689A4208D0B2F109
:100D3000804F05D00A4B9A4202D00A4B9A4204D106
:100D4000496825F080031943916080F83D400021F7
:100D500080F83C10084670BD022070BD002C014098
:100D6000000400400008004010B5040003D094F8CF
:100D70003D0010B107E0012010BD002084F83C00C8
:100D8000204600F01FF8022084F83D00211D206855
:100D900000F056FA012084F8460084F83E0084F8FA
:100DA0003F0084F8400084F8410084F8420084F851
:100DB000430084F8440084F8450084F83D00002096
:100DC00010BD000008B500680649884208D10648F1
:100DD000816941F400618161806900F400600090E4
:100DE00008BD0000002C01400010024090F83D10AA
:100DF000012901D001207047022180F83D100068D0
:100E00000B49884208D0B0F1804F05D0094988428B
:100E100002D00949884204D1816801F007010629FE
:100E200003D0016841F0010101600020704700001B
:100E3000002C0140000400400008004070B504464A
:100E400090F83C00012817D0012584F83C5002207E
:100E500084F83D002068826822F0770222F47F4205
:100E600082600868502830D00DDC20284DD005DC89
:100E700098B310283BD148E0022070BD302844D000
:100E8000402834D139E0602828D0702806D0B0F549
:100E9000805F2CD0B0F5005F29D10AE0CB68D1E9A2
:100EA0000121206800F002FA2068816841F0770192
:100EB00009E0CB68D1E90121206800F0F7F920684A
:100EC000816841F48041816011E0CA684968206806
:100ED00000F0FEF95021206807E016E0CA68496872
:100EE000206800F006FA6021206800F0E9F984F833
:100EF0003D50002084F83C0070BDCA6849682068F5
:100F000000F0E6F940212068EFE72268014610462C
:100F1000EBE770B5040004D094F83D00002510B153
:100F200006E0012070BD84F83C50204600F022F815
:100F3000242084F83D002068C16821F40051C1607C
:100F4000204600F0E9F92068016921F4904101612F
:100F50002068416921F02A0141612068C16841F49B
:100F60000051C1602564202084F83D0084F83E00D3
:100F7000002070BD30B585B0002400940194029427
:100F8000039400681449884224D11448816941F4CB
:100F900080418161816901F480410491816941F05E
:100FA0000401816180690E4D00F0040004904FF44B
:100FB00000700090022001900320039069462846AB
:100FC000FFF782FA2815CDE9000469462846029405
:100FD000FFF77AFA05B030BD00380140001002403A
:100FE000000801402DE9F843044690F83D001F46F3
:100FF00016460D4620284CD1C5B1BEB194F83C0030
:10100000012846D0012084F83C004FF00008C4F8C5
:101010004080212084F83D00FFF750FBA6848146E4
:10102000E684A068B0F5805F03D004E00120BDE84D
:10103000F883206928B12E465FF0000584F83C80D3
:101040000EE00026FAE78021204600F0C1F9A0B9A1
:10105000AEB116F8010B21684860E08C401EE084B8
:10106000E08C4B464FF0000200970028EBD14FF088
:101070004001204600F0ACF930B10320D7E735F845
:10108000020BC0F30800E6E7202084F83D000020B2
:10109000CDE70220CBE7FEE770B586B000252448F7
:1010A00002950395816941F010018161816901F028
:1010B00010010491816941F020018161816901F091
:1010C00020010491816941F004018161816901F08D
:1010D00004010491816941F0080181618069032460
:1010E00000F0080004904FF46040CDE90004694628
:1010F0001048FFF7E9F949F6FD10CDE900040E4E5E
:1011000069463046FFF7E0F90220CDE900050120ED
:10111000029069463046FFF7D7F94FF6FF70CDE9E8
:10112000000469460548FFF7CFF906B070BD00001E
:10113000001002400010014000080140000C014076
:1011400010B586B0002417480094019402940394CB
:10115000049413490594C0E900144FF6FF71C0E9E7
:101160000241046144618461FFF7FEFD08B172B67B
:10117000FEE74FF48050009069460A48FFF75EFE94
:1011800008B172B6FEE7049404A906480594FFF777
:10119000B7FD002801D072B6FEE706B010BD000012
:1011A000002C014014000020FEE7FEE770B50C4C57
:1011B00002212046FFF778FA0028F9D0094D0020D7
:1011C0002968486202212046FFF76EFA0028F9D10B
:1011D0002868406AC82801D9012070BD002070BD70
:1011E000000801401400002070477047FFF76CBAF8
:1011F00030B58FB028216846FFF766F814210AA899
:10120000FFF762F801252804CDE900500024079477
:101210006846FFF7D1FB08B172B6FEE70F200A90CF
:10122000CDE90B540D9400210AA80E94FFF7D6FACD
:10123000002801D072B6FEE70FB030BD7047000045
:10124000F0B50268164B174C174D4FF08047984287
:1012500005D0B84203D0A04201D0A84203D122F069
:1012600070064A683243984205D0B84203D0A04283
:1012700001D0A84203D122F44074CA6822434C69C9
:1012800022F08002224302608A68C2620A68826297
:10129000984201D10969016301214161F0BD00005B
:1012A000002C0140000400400008004010B5846894
:1012B00042EA032224F47F440A432243826010BDA1
:1012C000826822F070020A4342F007018160704791
:1012D00010B5036A046A24F001040462846924F0EE
:1012E000F00444EA021423F00A020A438461026211
:1012F00010BD10B5036A23F0100303628369046A0A
:1013000023F4704343EA023224F0A00343EA0111BC
:101310008261016210BD000070B504460068016979
:10132000E26821F44051114301612169A06808433A
:10133000616908432168CA6841F20C639A43024319
:10134000CA6020684169A26921F44071114341617A
:101350001E492068884202D1FFF7E6FA01E0FFF754
:10136000D3FA00EBC00101EB001260686421800039
:10137000B2FBF0F3B3FBF1F36FF018067343B2FB6B
:10138000F0F5B2FBF0F605EB8305322303EB051510
:10139000B5FBF1F5B6FBF1F605F0F00505EB06152A
:1013A000B2FBF0F6B2FBF0F0B0FBF1F06FF0180218
:1013B000504306EB800003EB0010B0FBF1F0216816
:1013C00000F00F002844886070BD00000038014024
:1013D0002DE9F041984617460E460446069D1DE04D
:1013E000681C1BD02DB1FFF769F9A0EB0800A842DB
:1013F00014D92068C16821F4D071C16020684169A6
:1014000021F001014161202084F83D0084F83E0074
:10141000002084F83C000320BDE8F08120680068CB
:1014200036EA000004D00020B842D9D00020F3E70B
:101430000120F9E7FEE70907090E002804DB00F1A7
:10144000E02080F80014704700F00F0000F1E02069
:1014500080F8141D7047000013B54FF0FF330122D0
:1014600069460248FFF7BEFD00981CBD5C000020E5
:1014700088B0FFF731F9FFF7BBFEFFF70DFEFFF76E
:101480005FFE3F483D49002601604FF41651C0E918
:1014900001160C21C660C0E904618661C661FFF7D0
:1014A00038FD08B172B6FEE735484838FFF79EFCB4
:1014B000DFF8D0800496059606964FF002094FF0AB
:1014C000010A0796CDE9049ACDE906A94D4657468B
:1014D00004A944464046FEF7F7FF002202212046B9
:1014E000FFF7E7F81320FEF7DDFF04AA04A982E85E
:1014F000E0002046FEF7E8FF02212046FFF7D4F87F
:101500000028F9D102212046FFF7CEF80028F9D0B3
:1015100002212046FFF7C8F80028F9D100960024E0
:101520006F4601965FF00005FFF740FEC5F1070129
:101530008840395D6D1C0843EDB23855082DF3D352
:10154000641CE4B2052CEDD39DF800100EA0FEF74C
:101550003FFE9DF801100EA0FEF73AFE9DF8021026
:101560000DA0FEF735FE9DF803100DA0FEF730FE2E
:101570004FF4FA70FEF796FFA4E700000038014030
:101580005C0000200008014042303D25753B000012
:1015900042313D25753B000042323D25753B000040
:1015A00042333D257520202000000000000000008F
:1015B0000000000001020304060708090000000003
:1015C00001020304E41500080000002014000000DC
:1015D00028010008F815000814000020EC0600009F
:1015E000440100080000000001000000100000009D
:0815F000000000000024F400DB
:04000005080000ED02
:00000001FF
